{
  "transactions": [
    {
      "hash": "0xb71a467c8e4c47e7ca5492718bd4cd32e58b8131e175019dd517f1ab7cf93fd0",
      "transactionType": "CALL",
      "contractName": null,
      "contractAddress": "0xae6b8BA35E93DF59F3026dc136B841379393D525",
      "function": "callBabe(uint256,bytes)",
      "arguments": [
        "0",
        "0x0000000000000000000000000000000000000000000000000000000000000000000000000000000000000000000000000000000000000000000000000000004000000000000000000000000000000000000000000000000000000000000000135361792074686973206973206120746573742100000000000000000000000000"
      ],
      "transaction": {
        "type": "0x02",
        "from": "0x52be7e4ea7374c573be31e67eba89c62648c3bee",
        "to": "0xae6b8ba35e93df59f3026dc136b841379393d525",
        "gas": "0x89ae",
        "value": "0x0",
        "data": "0x74fb76430000000000000000000000000000000000000000000000000000000000000000000000000000000000000000000000000000000000000000000000000000004000000000000000000000000000000000000000000000000000000000000000800000000000000000000000000000000000000000000000000000000000000000000000000000000000000000000000000000000000000000000000000000004000000000000000000000000000000000000000000000000000000000000000135361792074686973206973206120746573742100000000000000000000000000",
        "nonce": "0x1a",
        "accessList": []
      },
      "additionalContracts": [],
      "isFixedGasLimit": false
    }
  ],
  "receipts": [
    {
      "transactionHash": "0xb71a467c8e4c47e7ca5492718bd4cd32e58b8131e175019dd517f1ab7cf93fd0",
      "transactionIndex": "0x1",
      "blockHash": "0x2a7bdccc02e68ba7eb5c1c78d3062ffca630e535c1d6a95f7a0c4ac225141967",
      "blockNumber": "0x8a3d82",
      "from": "0x52BE7E4ea7374C573bE31e67ebA89C62648c3BEE",
      "to": "0xae6b8BA35E93DF59F3026dc136B841379393D525",
      "cumulativeGasUsed": "0x10f12",
      "gasUsed": "0x63af",
      "contractAddress": null,
      "logs": [
        {
          "address": "0xae6b8BA35E93DF59F3026dc136B841379393D525",
          "topics": [
            "0x9f5a480beecac1261f5330f1e3e282cb6e7ac3821fc2e97ef70fc4e6271cffb4",
            "0x0000000000000000000000000000000000000000000000000000000000000000"
          ],
          "data": "0x000000000000000000000000000000000000000000000000000000000000002000000000000000000000000000000000000000000000000000000000000000800000000000000000000000000000000000000000000000000000000000000000000000000000000000000000000000000000000000000000000000000000004000000000000000000000000000000000000000000000000000000000000000135361792074686973206973206120746573742100000000000000000000000000",
          "blockHash": "0x2a7bdccc02e68ba7eb5c1c78d3062ffca630e535c1d6a95f7a0c4ac225141967",
          "blockNumber": "0x8a3d82",
          "transactionHash": "0xb71a467c8e4c47e7ca5492718bd4cd32e58b8131e175019dd517f1ab7cf93fd0",
          "transactionIndex": "0x1",
          "logIndex": "0x0",
          "removed": false
        }
      ],
      "status": "0x1",
      "logsBloom": "0x00000000000000000000000000000000000000000000080000000000000000000000000000000000000000000000000000000000000000000000000000000000000000000000000000000000000000000000000000000000000000000000000000020000020000000000000000000800000000000000000000000000000000000000000000000000000000000020000000000000000000000000000000000000010000000000000000000000200000000000000000000000000000000000000000000000000000000000000000000000000000000000000000000080000020000000000000000000000000000000000000000000000000000000000000000000",
      "type": "0x2",
      "effectiveGasPrice": "0xb2d0609c"
    }
  ],
  "libraries": [],
  "pending": [],
  "returns": {},
  "timestamp": 1713887721,
  "chain": 84532,
  "commit": "375ec7f"
}