{
  "transactions": [
    {
      "hash": "0x98e129f021fcacfafbcbd12f7d0baab282d0ef38a480a2476dea86a09138d97e",
      "transactionType": "CALL",
      "contractName": null,
      "contractAddress": "0x17c97beB5c98c93A6557505399525DdAdAf8Ec03",
      "function": "callBabe(uint256,bytes)",
      "arguments": [
        "0",
        "0x0000000000000000000000000000000000000000000000000000000000000000000000000000000000000000000000000000000000000000000000000000004000000000000000000000000000000000000000000000000000000000000000135361792074686973206973206120746573742100000000000000000000000000"
      ],
      "transaction": {
        "type": "0x02",
        "from": "0x52be7e4ea7374c573be31e67eba89c62648c3bee",
        "to": "0x17c97beb5c98c93a6557505399525ddadaf8ec03",
        "gas": "0x89ae",
        "value": "0x0",
        "data": "0x74fb76430000000000000000000000000000000000000000000000000000000000000000000000000000000000000000000000000000000000000000000000000000004000000000000000000000000000000000000000000000000000000000000000800000000000000000000000000000000000000000000000000000000000000000000000000000000000000000000000000000000000000000000000000000004000000000000000000000000000000000000000000000000000000000000000135361792074686973206973206120746573742100000000000000000000000000",
        "nonce": "0x1d",
        "accessList": []
      },
      "additionalContracts": [],
      "isFixedGasLimit": false
    }
  ],
  "receipts": [
    {
      "transactionHash": "0x98e129f021fcacfafbcbd12f7d0baab282d0ef38a480a2476dea86a09138d97e",
      "transactionIndex": "0x1",
      "blockHash": "0xa93e5642c3ebb83e8560544bb2a59f171d81f1046639995ce98bbcb25b1e096c",
      "blockNumber": "0x8a57d0",
      "from": "0x52BE7E4ea7374C573bE31e67ebA89C62648c3BEE",
      "to": "0x17c97beB5c98c93A6557505399525DdAdAf8Ec03",
      "cumulativeGasUsed": "0x124b6",
      "gasUsed": "0x63af",
      "contractAddress": null,
      "logs": [
        {
          "address": "0x17c97beB5c98c93A6557505399525DdAdAf8Ec03",
          "topics": [
            "0x9f5a480beecac1261f5330f1e3e282cb6e7ac3821fc2e97ef70fc4e6271cffb4",
            "0x0000000000000000000000000000000000000000000000000000000000000000"
          ],
          "data": "0x000000000000000000000000000000000000000000000000000000000000002000000000000000000000000000000000000000000000000000000000000000800000000000000000000000000000000000000000000000000000000000000000000000000000000000000000000000000000000000000000000000000000004000000000000000000000000000000000000000000000000000000000000000135361792074686973206973206120746573742100000000000000000000000000",
          "blockHash": "0xa93e5642c3ebb83e8560544bb2a59f171d81f1046639995ce98bbcb25b1e096c",
          "blockNumber": "0x8a57d0",
          "transactionHash": "0x98e129f021fcacfafbcbd12f7d0baab282d0ef38a480a2476dea86a09138d97e",
          "transactionIndex": "0x1",
          "logIndex": "0x0",
          "removed": false
        }
      ],
      "status": "0x1",
      "logsBloom": "0x00000000000000000000000000000400000000000000000000000000000000000000000000000000000000000000000000000000000000000000000000080000000000000000000000000000000000000000000000000000000000000000000000000000020000000000000000000800000000000000000000000000000000000000000000000000000000000020000000000000000000000000000000000000010000000000000000000000200000000000000000000080000000000000000000000000000000000000000000000000000000000000000000000000000020000000000000000000000000000000000000000000000000000000000000000000",
      "type": "0x2",
      "effectiveGasPrice": "0xb2d05f1f"
    }
  ],
  "libraries": [],
  "pending": [],
  "returns": {},
  "timestamp": 1713901190,
  "chain": 84532,
  "commit": "375ec7f"
}