{
  "transactions": [
    {
      "hash": "0xcdd7ed68e4e5a01209cd6212120156393b884dcc1e3921a7b556712ce9cdbddf",
      "transactionType": "CALL",
      "contractName": null,
      "contractAddress": "0x89EAA8f4fcf1a6b986E5B2beDb40b01Ab9Ce395a",
      "function": "callBabe(uint256,bytes)",
      "arguments": [
        "0",
        "0x0000000000000000000000000000000000000000000000000000000000000000000000000000000000000000000000000000000000000000000000000000004000000000000000000000000000000000000000000000000000000000000000135361792074686973206973206120746573742100000000000000000000000000"
      ],
      "transaction": {
        "type": "0x02",
        "from": "0x52be7e4ea7374c573be31e67eba89c62648c3bee",
        "to": "0x89eaa8f4fcf1a6b986e5b2bedb40b01ab9ce395a",
        "gas": "0x89ae",
        "value": "0x0",
        "data": "0x74fb76430000000000000000000000000000000000000000000000000000000000000000000000000000000000000000000000000000000000000000000000000000004000000000000000000000000000000000000000000000000000000000000000800000000000000000000000000000000000000000000000000000000000000000000000000000000000000000000000000000000000000000000000000000004000000000000000000000000000000000000000000000000000000000000000135361792074686973206973206120746573742100000000000000000000000000",
        "nonce": "0x1f",
        "accessList": []
      },
      "additionalContracts": [],
      "isFixedGasLimit": false
    }
  ],
  "receipts": [
    {
      "transactionHash": "0xcdd7ed68e4e5a01209cd6212120156393b884dcc1e3921a7b556712ce9cdbddf",
      "transactionIndex": "0x1",
      "blockHash": "0x1402482a26634ad938b3623d2787857c9583152b43b4820288e3728b284e9416",
      "blockNumber": "0x8b70dd",
      "from": "0x52BE7E4ea7374C573bE31e67ebA89C62648c3BEE",
      "to": "0x89EAA8f4fcf1a6b986E5B2beDb40b01Ab9Ce395a",
      "cumulativeGasUsed": "0x10f1e",
      "gasUsed": "0x63af",
      "contractAddress": null,
      "logs": [
        {
          "address": "0x89EAA8f4fcf1a6b986E5B2beDb40b01Ab9Ce395a",
          "topics": [
            "0x9f5a480beecac1261f5330f1e3e282cb6e7ac3821fc2e97ef70fc4e6271cffb4",
            "0x0000000000000000000000000000000000000000000000000000000000000000"
          ],
          "data": "0x000000000000000000000000000000000000000000000000000000000000002000000000000000000000000000000000000000000000000000000000000000800000000000000000000000000000000000000000000000000000000000000000000000000000000000000000000000000000000000000000000000000000004000000000000000000000000000000000000000000000000000000000000000135361792074686973206973206120746573742100000000000000000000000000",
          "blockHash": "0x1402482a26634ad938b3623d2787857c9583152b43b4820288e3728b284e9416",
          "blockNumber": "0x8b70dd",
          "transactionHash": "0xcdd7ed68e4e5a01209cd6212120156393b884dcc1e3921a7b556712ce9cdbddf",
          "transactionIndex": "0x1",
          "logIndex": "0x0",
          "removed": false
        }
      ],
      "status": "0x1",
      "logsBloom": "0x00000000000000000000000000000000000000000000000000000000000000000000000000000000000000000000000000000000000000000000000000000000000000000000000000000000000000000000000000000000000000000000000000000000020000000000000000000800000000000000000000000000000000000000000000000008000000008020000000000000000000000000000000000000010000000000000000000000200000000000000000000000000800000000000000000000000000000000000000000000000000000000000000000000000020000000000000000000000000000000000000000000000000000000000000000000",
      "type": "0x2",
      "effectiveGasPrice": "0xb2d05f6f"
    }
  ],
  "libraries": [],
  "pending": [],
  "returns": {},
  "timestamp": 1714045088,
  "chain": 84532,
  "commit": "375ec7f"
}