{
  "transactions": [
    {
      "hash": "0xd6d9941baf0908815357dfa7f07c3b3699df9116f239a415245b2d4ac15fc6d5",
      "transactionType": "CALL",
      "contractName": null,
      "contractAddress": "0xe4E594254A9b45315630f97E974DdF2b5509324B",
      "function": "callBabe(uint256,bytes)",
      "arguments": [
        "1",
        "0x0000000000000000000000000000000000000000000000000000000000000000000000000000000000000000000000000000000000000000000000000000004000000000000000000000000000000000000000000000000000000000000000135361792074686973206973206120746573742100000000000000000000000000"
      ],
      "transaction": {
        "type": "0x02",
        "from": "0x52be7e4ea7374c573be31e67eba89c62648c3bee",
        "to": "0xe4e594254a9b45315630f97e974ddf2b5509324b",
        "gas": "0x8b2b",
        "value": "0x0",
        "data": "0x74fb76430000000000000000000000000000000000000000000000000000000000000001000000000000000000000000000000000000000000000000000000000000004000000000000000000000000000000000000000000000000000000000000000800000000000000000000000000000000000000000000000000000000000000000000000000000000000000000000000000000000000000000000000000000004000000000000000000000000000000000000000000000000000000000000000135361792074686973206973206120746573742100000000000000000000000000",
        "nonce": "0x17",
        "accessList": []
      },
      "additionalContracts": [],
      "isFixedGasLimit": false
    }
  ],
  "receipts": [
    {
      "transactionHash": "0xd6d9941baf0908815357dfa7f07c3b3699df9116f239a415245b2d4ac15fc6d5",
      "transactionIndex": "0x1",
      "blockHash": "0x5c643a8638318f6ad09c5a66711798c6394fcd558e4da5723437a7d05bf64a5a",
      "blockNumber": "0x87b800",
      "from": "0x52BE7E4ea7374C573bE31e67ebA89C62648c3BEE",
      "to": "0xe4E594254A9b45315630f97E974DdF2b5509324B",
      "cumulativeGasUsed": "0x10a80",
      "gasUsed": "0x5f29",
      "contractAddress": null,
      "logs": [
        {
          "address": "0xe4E594254A9b45315630f97E974DdF2b5509324B",
          "topics": [
            "0x9f5a480beecac1261f5330f1e3e282cb6e7ac3821fc2e97ef70fc4e6271cffb4",
            "0x0000000000000000000000000000000000000000000000000000000000000001",
            "0xb776e0bfa11885fb6c77cb20b411a0cc66ce7b9cadea6a113d5876979f68077f"
          ],
          "data": "0x",
          "blockHash": "0x5c643a8638318f6ad09c5a66711798c6394fcd558e4da5723437a7d05bf64a5a",
          "blockNumber": "0x87b800",
          "transactionHash": "0xd6d9941baf0908815357dfa7f07c3b3699df9116f239a415245b2d4ac15fc6d5",
          "transactionIndex": "0x1",
          "logIndex": "0x0",
          "removed": false
        }
      ],
      "status": "0x1",
      "logsBloom": "0x00000000000000000000000000000000000000000000000000000000000080000000000000000008000000000000000000000000000000000000000000040000000000000000000000000000000000000000000000050000000000000000000000000000000000000000000800000000000000000000000000000000000000000000000000000000000000000020000000000000000000000000000000000000010000000000000100000000200000000000000000000000000000000000000000100000000000000000000000000000000000000000000000000000000040000000000000000000000000000000000000000000000000000000000000000000",
      "type": "0x2",
      "effectiveGasPrice": "0xb2d05f1c"
    }
  ],
  "libraries": [],
  "pending": [],
  "returns": {},
  "timestamp": 1713557221,
  "chain": 84532,
  "commit": "375ec7f"
}