{
  "transactions": [
    {
      "hash": "0x2f8a1f9feb7bebca8265832cc40c9a8a4707e2400b2de5b941f29c403ddfd3dc",
      "transactionType": "CALL",
      "contractName": null,
      "contractAddress": "0xb46990fFC0E68ACA5d38514387F2C8aFFe096494",
      "function": "callBabe(uint256,bytes)",
      "arguments": [
        "0",
        "0x000000000000000000000000000000000000000000000000000000000000000053617920746869732069732061207465737421"
      ],
      "transaction": {
        "type": "0x02",
        "from": "0x52be7e4ea7374c573be31e67eba89c62648c3bee",
        "to": "0xb46990ffc0e68aca5d38514387f2c8affe096494",
        "gas": "0x88ce",
        "value": "0x0",
        "data": "0x74fb764300000000000000000000000000000000000000000000000000000000000000000000000000000000000000000000000000000000000000000000000000000040000000000000000000000000000000000000000000000000000000000000003300000000000000000000000000000000000000000000000000000000000000005361792074686973206973206120746573742100000000000000000000000000",
        "nonce": "0x12",
        "accessList": []
      },
      "additionalContracts": [],
      "isFixedGasLimit": false
    }
  ],
  "receipts": [
    {
      "transactionHash": "0x2f8a1f9feb7bebca8265832cc40c9a8a4707e2400b2de5b941f29c403ddfd3dc",
      "transactionIndex": "0x1",
      "blockHash": "0xf17a3e65a6b711fb173a4f345076b5776c639c5f5d70747984352b0e15bfee7a",
      "blockNumber": "0x870d33",
      "from": "0x52BE7E4ea7374C573bE31e67ebA89C62648c3BEE",
      "to": "0xb46990fFC0E68ACA5d38514387F2C8aFFe096494",
      "cumulativeGasUsed": "0x108e2",
      "gasUsed": "0x5d8b",
      "contractAddress": null,
      "logs": [
        {
          "address": "0xb46990fFC0E68ACA5d38514387F2C8aFFe096494",
          "topics": [
            "0x9f5a480beecac1261f5330f1e3e282cb6e7ac3821fc2e97ef70fc4e6271cffb4",
            "0x63f63046537b4752e02aae2410fa923ba5cc23ef454a0b33984684974e20f85e"
          ],
          "data": "0x0000000000000000000000000000000000000000000000000000000000000000",
          "blockHash": "0xf17a3e65a6b711fb173a4f345076b5776c639c5f5d70747984352b0e15bfee7a",
          "blockNumber": "0x870d33",
          "transactionHash": "0x2f8a1f9feb7bebca8265832cc40c9a8a4707e2400b2de5b941f29c403ddfd3dc",
          "transactionIndex": "0x1",
          "logIndex": "0x0",
          "removed": false
        }
      ],
      "status": "0x1",
      "logsBloom": "0x00000000000000000000000000020000000000000000000000000100000000000000000000000000000000000000000000000000000000000000000000000000000010000000000000000000000000000000000000000000000000000000000000000000000000000000000000000000000020000000000000000000000000000000000000000000000000000020000000000000000000000000000000000004010000000000000000000000200000000000000000000000000000000000000000000000000000000000000000000000000000000000000000000000000000000000000008000000000000000000000000000000000000000000000000000000",
      "type": "0x2",
      "effectiveGasPrice": "0xb2d05f00"
    }
  ],
  "libraries": [],
  "pending": [],
  "returns": {},
  "timestamp": 1713469773,
  "chain": 84532,
  "commit": "375ec7f"
}