{
  "transactions": [
    {
      "hash": "0x5265242ce9e21a860cbb92fd439119407f434713fcac585754c497928cfea6ec",
      "transactionType": "CALL",
      "contractName": null,
      "contractAddress": "0xe4E594254A9b45315630f97E974DdF2b5509324B",
      "function": "callBabe(uint256,bytes)",
      "arguments": [
        "0",
        "0x0000000000000000000000000000000000000000000000000000000000000000000000000000000000000000000000000000000000000000000000000000004000000000000000000000000000000000000000000000000000000000000000135361792074686973206973206120746573742100000000000000000000000000"
      ],
      "transaction": {
        "type": "0x02",
        "from": "0x52be7e4ea7374c573be31e67eba89c62648c3bee",
        "to": "0xe4e594254a9b45315630f97e974ddf2b5509324b",
        "gas": "0x835f",
        "value": "0x0",
        "data": "0x74fb76430000000000000000000000000000000000000000000000000000000000000000000000000000000000000000000000000000000000000000000000000000004000000000000000000000000000000000000000000000000000000000000000800000000000000000000000000000000000000000000000000000000000000000000000000000000000000000000000000000000000000000000000000000004000000000000000000000000000000000000000000000000000000000000000135361792074686973206973206120746573742100000000000000000000000000",
        "nonce": "0x16",
        "accessList": []
      },
      "additionalContracts": [],
      "isFixedGasLimit": false
    }
  ],
  "receipts": [
    {
      "transactionHash": "0x5265242ce9e21a860cbb92fd439119407f434713fcac585754c497928cfea6ec",
      "transactionIndex": "0x1",
      "blockHash": "0x6bdd6cee2c569c163d56f5120bc5d9efbb3284eb660125f8fd4637b03cd9f940",
      "blockNumber": "0x87b2f6",
      "from": "0x52BE7E4ea7374C573bE31e67ebA89C62648c3BEE",
      "to": "0xe4E594254A9b45315630f97E974DdF2b5509324B",
      "cumulativeGasUsed": "0x10a74",
      "gasUsed": "0x5f1d",
      "contractAddress": null,
      "logs": [
        {
          "address": "0xe4E594254A9b45315630f97E974DdF2b5509324B",
          "topics": [
            "0x9f5a480beecac1261f5330f1e3e282cb6e7ac3821fc2e97ef70fc4e6271cffb4",
            "0x0000000000000000000000000000000000000000000000000000000000000000",
            "0xb776e0bfa11885fb6c77cb20b411a0cc66ce7b9cadea6a113d5876979f68077f"
          ],
          "data": "0x",
          "blockHash": "0x6bdd6cee2c569c163d56f5120bc5d9efbb3284eb660125f8fd4637b03cd9f940",
          "blockNumber": "0x87b2f6",
          "transactionHash": "0x5265242ce9e21a860cbb92fd439119407f434713fcac585754c497928cfea6ec",
          "transactionIndex": "0x1",
          "logIndex": "0x0",
          "removed": false
        }
      ],
      "status": "0x1",
      "logsBloom": "0x00000000000000000000000000000000000000000000000000000000000080000000000000000008000000000000000000000000000000000000000000000000000000000000000000000000000000000000000000010000000000000000000000000000020000000000000800000800000000000000000000000000000000000000000000000000000000000020000000000000000000000000000000000000010000000000000100000000200000000000000000000000000000000000000000100000000000000000000000000000000000000000000000000000000020000000000000000000000000000000000000000000000000000000000000000000",
      "type": "0x2",
      "effectiveGasPrice": "0xb2d05f17"
    }
  ],
  "libraries": [],
  "pending": [],
  "returns": {},
  "timestamp": 1713554642,
  "chain": 84532,
  "commit": "375ec7f"
}