{
  "transactions": [
    {
      "hash": "0x8f96e07493752de66f63a11763b40ae6f7236969f3654f4ec634d9c372e63fb0",
      "transactionType": "CALL",
      "contractName": null,
      "contractAddress": "0x17c97beB5c98c93A6557505399525DdAdAf8Ec03",
      "function": "callBabe(uint256,bytes)",
      "arguments": [
        "0",
        "0x000000000000000000000000000000000000000000000000000000000000000053617920746869732069732061207465737421"
      ],
      "transaction": {
        "type": "0x02",
        "from": "0x52be7e4ea7374c573be31e67eba89c62648c3bee",
        "to": "0x17c97beb5c98c93a6557505399525ddadaf8ec03",
        "gas": "0x8d31",
        "value": "0x0",
        "data": "0x74fb764300000000000000000000000000000000000000000000000000000000000000000000000000000000000000000000000000000000000000000000000000000040000000000000000000000000000000000000000000000000000000000000003300000000000000000000000000000000000000000000000000000000000000005361792074686973206973206120746573742100000000000000000000000000",
        "nonce": "0x1c",
        "accessList": []
      },
      "additionalContracts": [],
      "isFixedGasLimit": false
    }
  ],
  "receipts": [
    {
      "transactionHash": "0x8f96e07493752de66f63a11763b40ae6f7236969f3654f4ec634d9c372e63fb0",
      "transactionIndex": "0x1",
      "blockHash": "0x5dbc693f987243c765274933e94c7bfd1c09cfacdfcc666e29a2bd141ce51111",
      "blockNumber": "0x8a532f",
      "from": "0x52BE7E4ea7374C573bE31e67ebA89C62648c3BEE",
      "to": "0x17c97beB5c98c93A6557505399525DdAdAf8Ec03",
      "cumulativeGasUsed": "0x10bca",
      "gasUsed": "0x608b",
      "contractAddress": null,
      "logs": [
        {
          "address": "0x17c97beB5c98c93A6557505399525DdAdAf8Ec03",
          "topics": [
            "0x9f5a480beecac1261f5330f1e3e282cb6e7ac3821fc2e97ef70fc4e6271cffb4",
            "0x0000000000000000000000000000000000000000000000000000000000000000"
          ],
          "data": "0x0000000000000000000000000000000000000000000000000000000000000020000000000000000000000000000000000000000000000000000000000000003300000000000000000000000000000000000000000000000000000000000000005361792074686973206973206120746573742100000000000000000000000000",
          "blockHash": "0x5dbc693f987243c765274933e94c7bfd1c09cfacdfcc666e29a2bd141ce51111",
          "blockNumber": "0x8a532f",
          "transactionHash": "0x8f96e07493752de66f63a11763b40ae6f7236969f3654f4ec634d9c372e63fb0",
          "transactionIndex": "0x1",
          "logIndex": "0x0",
          "removed": false
        }
      ],
      "status": "0x1",
      "logsBloom": "0x00000000000000000000000000000400000000000000000000000000000000000000000000000000000000000000000000000000000000000000000000080000000000000000000000000000000000000000000000000000000000000000000000000000020000000000000000000800000000000000000000000000000000000000000000000000000000000020000000000000000000000000000000000000010000000000000000000000200000000000000000000080000000000000000000000000000000000000000000000000000000000000000000000000000020000000000000000000000000000000000000000000000000000000000000000000",
      "type": "0x2",
      "effectiveGasPrice": "0xb2d05f25"
    }
  ],
  "libraries": [],
  "pending": [],
  "returns": {},
  "timestamp": 1713898819,
  "chain": 84532,
  "commit": "375ec7f"
}