{
  "transactions": [
    {
      "hash": "0x081b9f3b630f6860794ecd361757601659c14faeb2fe9c3b49d7a501005a0865",
      "transactionType": "CALL",
      "contractName": null,
      "contractAddress": "0x336B884a3fDfE45861fF83Ccc0cdae76e967a07a",
      "function": "callBabe(uint256,bytes)",
      "arguments": [
        "0",
        "0x0000000000000000000000000000000000000000000000000000000000000000000000000000000000000000000000000000000000000000000000000000004000000000000000000000000000000000000000000000000000000000000000135361792074686973206973206120746573742100000000000000000000000000"
      ],
      "transaction": {
        "type": "0x02",
        "from": "0x52be7e4ea7374c573be31e67eba89c62648c3bee",
        "to": "0x336b884a3fdfe45861ff83ccc0cdae76e967a07a",
        "gas": "0x89ce",
        "value": "0x0",
        "data": "0x74fb76430000000000000000000000000000000000000000000000000000000000000000000000000000000000000000000000000000000000000000000000000000004000000000000000000000000000000000000000000000000000000000000000800000000000000000000000000000000000000000000000000000000000000000000000000000000000000000000000000000000000000000000000000000004000000000000000000000000000000000000000000000000000000000000000135361792074686973206973206120746573742100000000000000000000000000",
        "nonce": "0x21",
        "accessList": []
      },
      "additionalContracts": [],
      "isFixedGasLimit": false
    }
  ],
  "receipts": [
    {
      "transactionHash": "0x081b9f3b630f6860794ecd361757601659c14faeb2fe9c3b49d7a501005a0865",
      "transactionIndex": "0x1",
      "blockHash": "0x1e30b339379dc4e11be77dbfd500604ad75090cdda3062b6d006e487b235fce2",
      "blockNumber": "0x8d6d57",
      "from": "0x52BE7E4ea7374C573bE31e67ebA89C62648c3BEE",
      "to": "0x336B884a3fDfE45861fF83Ccc0cdae76e967a07a",
      "cumulativeGasUsed": "0x10f28",
      "gasUsed": "0x63c5",
      "contractAddress": null,
      "logs": [
        {
          "address": "0x336B884a3fDfE45861fF83Ccc0cdae76e967a07a",
          "topics": [
            "0x9f5a480beecac1261f5330f1e3e282cb6e7ac3821fc2e97ef70fc4e6271cffb4",
            "0x0000000000000000000000000000000000000000000000000000000000000000"
          ],
          "data": "0x000000000000000000000000000000000000000000000000000000000000002000000000000000000000000000000000000000000000000000000000000000800000000000000000000000000000000000000000000000000000000000000000000000000000000000000000000000000000000000000000000000000000004000000000000000000000000000000000000000000000000000000000000000135361792074686973206973206120746573742100000000000000000000000000",
          "blockHash": "0x1e30b339379dc4e11be77dbfd500604ad75090cdda3062b6d006e487b235fce2",
          "blockNumber": "0x8d6d57",
          "transactionHash": "0x081b9f3b630f6860794ecd361757601659c14faeb2fe9c3b49d7a501005a0865",
          "transactionIndex": "0x1",
          "logIndex": "0x0",
          "removed": false
        }
      ],
      "status": "0x1",
      "logsBloom": "0x00000000000000000000000000000000000000000000000000000000000000000000000000000000000000000000000000000000000000000000000000000000000000000000000000000000000000000000000000000000000000000000000000000000020000000000000000000800000000000000000000000000000000000000000000000000000000000020000000000000000000000000002000000000010000000000000000000000200000000000000000000000000000000000000000000000000000000000000000000000000000000000000000000000000020200000000000000000000000000000000000000000000000004000000000000000",
      "type": "0x2",
      "effectiveGasPrice": "0xb2d05f24"
    }
  ],
  "libraries": [],
  "pending": [],
  "returns": {},
  "timestamp": 1714305427,
  "chain": 84532,
  "commit": "7ce10f7"
}