{
  "transactions": [
    {
      "hash": "0x564e17e269d78d073be4eb526ecc144e20ffaaa8807ebeb92be749321af63428",
      "transactionType": "CALL",
      "contractName": null,
      "contractAddress": "0x58dbAa53becEC0bC11A3258132EB6e83EafE0493",
      "function": "callBabe(uint256,bytes)",
      "arguments": [
        "0",
        "0x0000000000000000000000000000000000000000000000000000000000000000000000000000000000000000000000000000000000000000000000000000004000000000000000000000000000000000000000000000000000000000000000135361792074686973206973206120746573742100000000000000000000000000"
      ],
      "transaction": {
        "type": "0x02",
        "from": "0x52be7e4ea7374c573be31e67eba89c62648c3bee",
        "to": "0x58dbaa53becec0bc11a3258132eb6e83eafe0493",
        "gas": "0x8a8a",
        "value": "0x0",
        "data": "0x74fb76430000000000000000000000000000000000000000000000000000000000000000000000000000000000000000000000000000000000000000000000000000004000000000000000000000000000000000000000000000000000000000000000800000000000000000000000000000000000000000000000000000000000000000000000000000000000000000000000000000000000000000000000000000004000000000000000000000000000000000000000000000000000000000000000135361792074686973206973206120746573742100000000000000000000000000",
        "nonce": "0x14",
        "accessList": []
      },
      "additionalContracts": [],
      "isFixedGasLimit": false
    }
  ],
  "receipts": [
    {
      "transactionHash": "0x564e17e269d78d073be4eb526ecc144e20ffaaa8807ebeb92be749321af63428",
      "transactionIndex": "0x1",
      "blockHash": "0x8f2774c48fe4478c89c2654ba0ef8cb61b0067f91a6d25e16de8977a29c26028",
      "blockNumber": "0x87131c",
      "from": "0x52BE7E4ea7374C573bE31e67ebA89C62648c3BEE",
      "to": "0x58dbAa53becEC0bC11A3258132EB6e83EafE0493",
      "cumulativeGasUsed": "0x10a06",
      "gasUsed": "0x5ebb",
      "contractAddress": null,
      "logs": [
        {
          "address": "0x58dbAa53becEC0bC11A3258132EB6e83EafE0493",
          "topics": [
            "0x9f5a480beecac1261f5330f1e3e282cb6e7ac3821fc2e97ef70fc4e6271cffb4",
            "0xb776e0bfa11885fb6c77cb20b411a0cc66ce7b9cadea6a113d5876979f68077f"
          ],
          "data": "0x0000000000000000000000000000000000000000000000000000000000000000",
          "blockHash": "0x8f2774c48fe4478c89c2654ba0ef8cb61b0067f91a6d25e16de8977a29c26028",
          "blockNumber": "0x87131c",
          "transactionHash": "0x564e17e269d78d073be4eb526ecc144e20ffaaa8807ebeb92be749321af63428",
          "transactionIndex": "0x1",
          "logIndex": "0x0",
          "removed": false
        }
      ],
      "status": "0x1",
      "logsBloom": "0x00000000000000000000000000000000000000000000000000000000080000000000000000000008000000000000000000000000000000000000000000000000000000000000000000000000000000000000000000000000000000000000000000000000000000000000000000000000028000000000000000000000000000000000000000000000000000000020000000000000000000000000000000000000010000000000000100000000200000000000000000000000000000000000000000100000000000000000000000000000000000000000000000000000000000000000000000000000000000000000000000000000000000000000000000000000",
      "type": "0x2",
      "effectiveGasPrice": "0xb2d05f06"
    }
  ],
  "libraries": [],
  "pending": [],
  "returns": {},
  "timestamp": 1713472799,
  "chain": 84532,
  "commit": "375ec7f"
}