{
  "transactions": [
    {
      "hash": "0x4c2ba6b6cf0e8723f11c98b5712ecb0dd84802cb31a615266cf1f6adf5f68b20",
      "transactionType": "CALL",
      "contractName": null,
      "contractAddress": "0xc589d51d02c855c7b587c169253b07c19F977405",
      "function": "callBabe(uint256,bytes)",
      "arguments": [
        "0",
        "0x0000000000000000000000000000000000000000000000000000000000000020000000000000000000000000000000000000000000000000000000000000000100000000000000000000000000000000000000000000000000000000000000200000000000000000000000000000000000000000000000000000000000000000000000000000000000000000000000000000000000000000000000000000004000000000000000000000000000000000000000000000000000000000000000135361792074686973206973206120746573742100000000000000000000000000"
      ],
      "transaction": {
        "type": "0x02",
        "from": "0x52be7e4ea7374c573be31e67eba89c62648c3bee",
        "to": "0xc589d51d02c855c7b587c169253b07c19f977405",
        "gas": "0x8d25",
        "value": "0x0",
        "data": "0x74fb76430000000000000000000000000000000000000000000000000000000000000000000000000000000000000000000000000000000000000000000000000000004000000000000000000000000000000000000000000000000000000000000000e00000000000000000000000000000000000000000000000000000000000000020000000000000000000000000000000000000000000000000000000000000000100000000000000000000000000000000000000000000000000000000000000200000000000000000000000000000000000000000000000000000000000000000000000000000000000000000000000000000000000000000000000000000004000000000000000000000000000000000000000000000000000000000000000135361792074686973206973206120746573742100000000000000000000000000",
        "nonce": "0x10",
        "accessList": []
      },
      "additionalContracts": [],
      "isFixedGasLimit": false
    }
  ],
  "receipts": [
    {
      "transactionHash": "0x4c2ba6b6cf0e8723f11c98b5712ecb0dd84802cb31a615266cf1f6adf5f68b20",
      "transactionIndex": "0x1",
      "blockHash": "0x4ccae13afb944199f9d852c9ce973b81a661f6d9a18255e0afcbbeef20cb5440",
      "blockNumber": "0x870a0d",
      "from": "0x52BE7E4ea7374C573bE31e67ebA89C62648c3BEE",
      "to": "0xc589d51d02c855c7b587c169253b07c19F977405",
      "cumulativeGasUsed": "0x12c86",
      "gasUsed": "0x6083",
      "contractAddress": null,
      "logs": [
        {
          "address": "0xc589d51d02c855c7b587c169253b07c19F977405",
          "topics": [
            "0x9f5a480beecac1261f5330f1e3e282cb6e7ac3821fc2e97ef70fc4e6271cffb4",
            "0xe08deba6174366e9f5fcf8256feda191de02b382fb2bf2e7e489db39462f4bec"
          ],
          "data": "0x0000000000000000000000000000000000000000000000000000000000000000",
          "blockHash": "0x4ccae13afb944199f9d852c9ce973b81a661f6d9a18255e0afcbbeef20cb5440",
          "blockNumber": "0x870a0d",
          "transactionHash": "0x4c2ba6b6cf0e8723f11c98b5712ecb0dd84802cb31a615266cf1f6adf5f68b20",
          "transactionIndex": "0x1",
          "logIndex": "0x0",
          "removed": false
        }
      ],
      "status": "0x1",
      "logsBloom": "0x00080000000000000000000000000000000000000000000000000000000000000000000000000000000000000000000000000000000000000000000000000000000000000000000400000000000000000000000000000000000000000000000000000000000000000000000000000000000000000000000030000000000000000000000000000000000000000020000000000000000000000000000000200000010000000000000000000000200000000000000000000000000000000000000000000000000000000000000000000000000000000000000000000000000000000000000000000000000000000000000000000100000000000000000000000000",
      "type": "0x2",
      "effectiveGasPrice": "0xb2d05f1a"
    }
  ],
  "libraries": [],
  "pending": [],
  "returns": {},
  "timestamp": 1713468159,
  "chain": 84532,
  "commit": "375ec7f"
}